S01600006272616B696E672073797374656D2E737265636B
S11300000C942A000C9447000C9447000C9447006D
S11300100C9447000C9447000C9447000C94470040
S11300200C9447000C9447000C9447000C94470030
S11300300C9447000C9447000C9447000C94470020
S11300400C9447000C9447000C9447000C94470010
S11300500C94470011241FBECFE5D4E0DEBFCDBF12
S113006010E0A0E6B0E0EEEAF3E002C005900D92E5
S1130070A837B107D9F710E0A8E7B0E001C01D9296
S1130080AA37B107E1F70E940B010C94D5010C9437
S11300900000D898E3ECF9E03197F1F700C00000D4
S11300A0D998E3ECF9E03197F1F700C0000082BB86
S11300B083EC99E00197F1F700C00000DA9AE3ECD1
S11300C0F9E03197F1F700C00000DA9883EC99E089
S11300D00197F1F700C000000895D89AE3ECF9E025
S11300E03197F1F700C00000D998E3ECF9E03197BB
S11300F0F1F700C0000082BB83EC99E00197F1F7AF
S113010000C00000DA9AE3ECF9E03197F1F700C09F
S11301100000DA9883EC99E00197F1F700C0000041
S1130120089581E00E94490083EC99E00197F1F77A
S113013000C0000088E30E94490083EC99E0019725
S1130140F1F700C0000080E80E94490083EC99E0C8
S11301500197F1F700C000008CE00E94490083EC95
S113016099E00197F1F700C0000086E00E94490081
S113017083EC99E00197F1F700C000000895CF9354
S1130180DF93EC018881882331F021960E946D0071
S113019089918823D9F7DF91CF910895CF93DF9385
S11301A08EEF87BB1FBC82E08EBD1DBC1CBC40E330
S11301B055E760E070E0E0E0F0E0A0E0B0E0C1E02E
S11301C0D0E026B330E0C9018170907020FF0CC0EC
S11301D06115710521F41DBC1CBCBE0112C0613047
S11301E0710579F4FE010DC0009759F4E130F10571
S11301F041F48CB59DB59093790080937800BD014E
S1130200FD0141505040E9F68091780090917900C9
S1130210DF91CF91089584B7806884BF8FEF81BB4D
S11302208ABB82E087BB8FE084BB83EC99E00197B3
S1130230F1F700C000000E94910066247724552441
S1130240689451F80F2EFAE32F2E3324F02D0F2E3D
S1130250F4E68F2E9924F02D0F2EFAE0EF2EFF24D2
S1130260F02D80E80E94490080E690E00E94BF00E3
S11302708CE80E9449008AE690E00E94BF000F2E9D
S1130280F3E0AF2EBB24F02D57BAC19A93E09A95B0
S1130290F1F70000C19881E00E94CE00282F392F89
S11302A03093790020937800C901B1010E94AE0116
S11302B0C62FD72FC301861B970BB901665F7F4FEB
S11302C00E94AE018B0189E80E9449008C2F9D2F6A
S11302D0B4010E94AE016C01862F805D0E946D0006
S11302E0C601B7010E94AE01862F805D0E946D0099
S11302F08C2F9D2FB7010E94AE01805D0E946D007E
S113030080EC0E9449008DE690E00E94BF0089ECD9
S11303100E944900C801B4010E94C2016C01862FE9
S1130320805D0E946D00C601B7010E94C201862F44
S1130330805D0E946D00C801B7010E94C201805D0A
S11303400E946D000894A108B108A114B10409F039
S11303509BCF81E085BB6C2E7D2E83CFAA1BBB1B5C
S113036051E107C0AA1FBB1FA617B70710F0A61BB1
S1130370B70B881F991F5A95A9F780959095BC01D2
S1130380CD01089597FB092E07260AD077FD04D0E6
S1130390E5DF06D000201AF4709561957F4F08952B
S11103A0F6F7909581959F4F0895F894FFCF3E
S11303AE44697374616E63653D00636D0076656CBC
S10B03BE6F636974793D0000CE
S9030000FC
