S01200006164635F6F6E5F6C63642E737265631C
S11300000C942A000C9447000C9447000C9447006D
S11300100C9447000C9447000C9447000C94470040
S11300200C9447000C9447000C9447000C94470030
S11300300C9447000C9447000C9447000C94470020
S11300400C9447000C9447000C9447000C94470010
S11300500C94470011241FBECFE5D4E0DEBFCDBF12
S113006010E0A0E6B0E0E0E5F2E002C005900D92F9
S1130070AA36B107D9F710E0AAE6B0E001C01D9294
S1130080A138B107E1F70E948C000C9426010C946E
S11300900000369A089588BB92989398949A83ECBA
S11300A099E00197F1F700C000009498089588E35F
S11300B00E944B0083ED90E30197F1F700C000002C
S11300C08EE00E944B0083ED90E30197F1F700C0AE
S11300D0000081E00E944B0083ED90E30197F1F76B
S11300E000C0000086E00E944B0083ED90E301977E
S11300F0F1F700C0000080E80E944B0083ED90E31C
S11301000197F1F700C00000089581E090E0349970
S113011002C080E090E008958FEF87BB84BB81BB71
S11301201ABA8BBB83E886B980E487B915BA0E94F2
S11301305700CBE4D0E000E610E00E9449000E94A2
S113014085000097E1F384B185BB85B182BB84B19E
S113015095B190936D0080936C0080E890E0FE016F
S11301600995C8010E940E0188E890E0FE010995F6
S113017084B195B10E94D20084B195B122E080305F
S1130180920710F0959AD9CF969AD7CF88BB929AB6
S11301909398949A83EC99E00197F1F700C00000DA
S11301A0949808950F931F93CF93DF93EC018C01E0
S11301B00F7010709C0120703F70C07FD070832F2F
S11301C09927D295C295CF70CD27DF70CD278A307D
S11301D0910520F0895C0E94C60003C0805D0E94E6
S11301E0C600CA30D10528F08C2F895C0E94C60055
S11301F004C08C2F805D0E94C6000A30110528F0CF
S1130200802F895C0E94C60004C0802F805D0E94FC
S1130210C600DF91CF911F910F910895CF93DF9383
S1130220EC01109280008881882369F00E94C60046
S1130230809180008F5F80938000FE01E80FF11DA4
S11302408081882399F7DF91CF910895F894FFCFA7
S10D025044495354414E4345000055
S9030000FC
